DEMFCUSTOMER  AFILE2    DC@DEMOLIB                 0001000010SLCannot be empty               ENCustomer cannot be empty                                                                         *LIBL     E000000674YY 
DEMFCUSTOMERP AFILE2    DC@DEMOLIB                 0001000010SLCannot be blank               ENCustomerPhoneNumber cannot be blank                                                                        E000000675YY 
DEMFLOGGEDDAT AFILE2    DC@DEMOLIB                 0001000010SLCannot be SQLNull             ENLoggedDate cannot be SQLNull                                                                               E000000673YY 
DEMFPROBLEMDE AFILE2    DC@DEMOLIB                 0001000010SLCannot be empty               ENProblemDescription cannot be empty                                                                         E000000672YY 
DEMFTICKETNUM AFILE2    DC@DEMOLIB                 0001000010SLMust be > zero                NETicketNumber must be greater than zero                                                                     E000000671YY 
