DEMFCUSTOMER  AFILE1    DC@DEMOLIB                 0001000010SLCannot be empty               ENCustomer cannot be empty                                                                         *LIBL     E000000558YY 
DEMFCUSTOMERP AFILE1    DC@DEMOLIB                 0001000010SLCannot be blank               ENCustomerPhoneNumber cannot be blank                                                                        E000000559YY 
DEMFLOGGEDDAT AFILE1    DC@DEMOLIB                 0001000010SLCannot be SQLNull             ENLoggedDate cannot be SQLNull                                                                               E000000557YY 
DEMFPROBLEMDE AFILE1    DC@DEMOLIB                 0001000010SLCannot be empty               ENProblemDescription cannot be empty                                                                         E000000556YY 
DEMFTICKETNUM AFILE1    DC@DEMOLIB                 0001000010SLMust be > zero                NETicketNumber must be greater than zero                                                                     E000000555YY 
